:100000000C9434000C9451000C9451000C94510049
:100010000C9451000C9451000C9451000C9451001C
:100020000C9451000C9451000C9451000C9451000C
:100030000C9451000C9451000C9451000C945100FC
:100040000C9451000C9451000C9451000C945100EC
:100050000C9451000C9451000C9451000C945100DC
:100060000C9451000C94510011241FBECFEFD8E026
:10007000DEBFCDBF12E0A0E0B1E0EAEBF0E102C0EC
:1000800005900D92A432B107D9F726E0A4E2B2E0C0
:1000900001C01D92A234B207E1F70E9485020C94C0
:1000A0005B080C940000CF93CFEFC80FC43058F416
:1000B00081E090E00E942504FC01C083209A219AEF
:1000C000229A239A02C080E090E0CF910895FC012B
:1000D0008081861748F025B181E090E001C0880F4B
:1000E0006A95EAF7822B85B90895FC01808186170D
:1000F00050F025B181E090E001C0880F6A95EAF7E1
:100100008095822385B90895FC01808108950C941F
:10011000BD040F931F9380E040E050E0BA01FA0164
:10012000E85DF94F9081191694F480E0FA01E85DDA
:10013000F94F008110165CF4800F002E000C110B9B
:10014000220B330B400F511F621F731FEFCF4F5F06
:100150005F4F6F4F7F4F4031510561057105F8F2D8
:100160001F910F910895109225021092240280E1B0
:1001700080932806E9E2F6E0119286E0E833F8077A
:10018000D9F7089580E090E0FC01E85DF94F208107
:1001900012167CF420E0DC01A85DB94F3C911316E7
:1001A0003CF4230F1C92830F911D37FD9A95F3CFDA
:1001B000208301968031910538F30895865292404C
:1001C00097FDCF9626E0959587952A95E1F7FC0156
:1001D000E85DF94F80818195808308950F931F9387
:1001E000CF93DF9386E091E09F938F930E94460523
:1001F000C8E2D6E00F900F900FE011E08991282F10
:10020000082E000C330B3F938F931F930F930E9484
:1002100046050F900F900F900F9086E0C833D807D7
:1002200069F78AE090E0DF91CF911F910F910C94D4
:100230005C054F925F926F927F928F929F92AF92E6
:10024000BF92CF92DF92EF92FF920F931F93CF93C3
:10025000DF93813024E0920708F075C08C017C01A7
:100260006FE3E60EF11C70ECE722E70126E0D6957D
:10027000C7952A95E1F78C2E7C2E6C2E61945C2E0E
:100280004D2E912C33E1C32E31E0D32E2091240248
:100290003091250240E150E0F901E85DF94F80819D
:1002A0001816CCF48815BCF0A90196E0440F551F30
:1002B0009A95E1F7BA016A5D7D4F5B012C0F3D1FF6
:1002C000D901A85DB94F87198C93608230932502BC
:1002D000209324020DC02F5F3F4F2F7033274150D2
:1002E0005109D1F63093250220932402A12CB12C80
:1002F000C501865292409F938F934F925F92FF92D7
:10030000EF921F930F93DF92CF920E9446058DB715
:100310009EB70A960FB6F8949EBF0FBE8DBFA1146C
:10032000B104A1F491100FC088E291E00E9463052E
:100330000E94C20089E491E00E9463050E94EE00E1
:1003400099249394A3CF80E090E001C0C501DF9190
:10035000CF911F910F91FF90EF90DF90CF90BF90C2
:10036000AF909F908F907F906F905F904F90089587
:10037000CF92DF92EF92FF921F93CF93DF93EC0126
:1003800010E1161B612F70E080E090E00E94C10335
:100390006B017C0120E030E040E850E40E94200442
:1003A00087FD19C020E030E040E051E4C701B6010C
:1003B0000E94BA0387FF0FC060E0CE010E94670071
:1003C0002FEF89E698E1215080409040E1F700C08E
:1003D000000060E07EC020E030E040E051E4C70172
:1003E000B6010E94200487FD21C020E030E040E4F7
:1003F00051E4C701B6010E94BA0387FF17C060E04D
:10040000CE010E94670061E0CE010E9467002FEFDD
:1004100089E698E1215080409040E1F700C000005B
:1004200060E0CE010E94750061E053C020E030E042
:1004300040E451E4C701B6010E94200487FD21C0B9
:100440001031F8F460E0CE010E94670061E0CE0157
:100450000E94670062E0CE010E9467002FEF89E6EC
:1004600098E1215080409040E1F700C0000060E03A
:10047000CE010E94750061E0CE010E94750062E02D
:1004800028C0103189F560E0CE010E94670061E06C
:10049000CE010E94670062E0CE010E94670063E027
:1004A000CE010E9467002FEF89E698E1215080403D
:1004B0009040E1F700C0000060E0CE010E947500AE
:1004C00061E0CE010E94750062E0CE010E947500DD
:1004D00063E0CE010E9475002FEF89E698E121507C
:1004E00080409040E1F707C02FEF83ED90E321506B
:1004F00080409040E1F700C00000DF91CF911F9154
:10050000FF90EF90DF90CF9008956F927F928F923F
:100510009F92AF92BF92CF92DF92EF92FF920F9392
:100520001F93CF93DF93CDB7DEB764970FB6F894E0
:10053000DEBF0FBECDBF84E00E9453008C010E943D
:10054000B3000E94EE008AE690E00E9419019A83AF
:1005500089830E94EE000E9489001F928F9382E59A
:10056000E82E81E0F82EFF92EF920E9446050E944D
:100570008900682FC8010E94B8018FE890E00E94AE
:1005800019019C838B830E94EE000E9489001F92B8
:100590008F93FF92EF920E9446050E948900682F78
:1005A000C8010E94B80182E290E00E9419019E8376
:1005B0008D830E94EE000E9489001F928F93FF920C
:1005C000EF920E9446050E948900682FC8010E9490
:1005D000B80185ED90E00E94190198878F830E94F1
:1005E000EE000E9489001F928F93FF92EF920E946B
:1005F00046050E948900682FC8010E94B8018AE25E
:1006000090E00E9419019A8789870E94EE000E945B
:1006100089001F928F93FF92EF920E9446050E94DD
:100620008900682FC8010E94B80187ED90E00E9400
:1006300019019C878B870E94EE000E9489001F92FF
:100640008F93FF92EF920E9446050E948900682FC7
:10065000C8010E94B8018FE090E00E9419019E87B6
:100660008D870E94EE000E9489001F928F93FF9257
:10067000EF920E9446050E948900682FC8010E94DF
:10068000B8018BE691E00E946305CE0101965C0102
:100690000FB6F894DEBF0FBECDBFE12CF12C9EE962
:1006A000892E91E0992E29EBC22E21E0D22E3FED2A
:1006B000632E31E0732EFF92EF929F928F920E94F1
:1006C0004605F501819191915F010E94DE000E9433
:1006D000EE000E9489001F928F93DF92CF920E94BA
:1006E00046050E948900682FC8010E94B8010E9437
:1006F000C2000E94EE000E9489001F928F937F9299
:100700006F920E9446050E948900682FC8010E94CE
:10071000B801FFEFEF1AFF0A0FB6F894DEBF0FBE65
:10072000CDBF97E0E916F10431F60E9489001F92CF
:100730008F9385E092E09F938F930E9446050F90E0
:100740000F900F900F9080E090E064960FB6F894B1
:10075000DEBF0FBECDBFDF91CF911F910F91FF90F4
:10076000EF90DF90CF90BF90AF909F908F907F9051
:100770006F9008950E94FC0308F481E00895E894C6
:1007800009C097FB3EF490958095709561957F4FD9
:100790008F4F9F4F9923A9F0F92F96E9BB27939587
:1007A000F695879577956795B795F111F8CFFAF497
:1007B000BB0F11F460FF1BC06F5F7F4F8F4F9F4FC8
:1007C00016C0882311F096E911C0772321F09EE826
:1007D000872F762F05C0662371F096E8862F70E08C
:1007E00060E02AF09A95660F771F881FDAF7880F66
:1007F0009695879597F90895990F0008550FAA0BBC
:10080000E0E8FEEF16161706E807F907C0F0121623
:100810001306E407F50798F0621B730B840B950B26
:1008200039F40A2661F0232B242B252B21F408957B
:100830000A2609F4A140A6958FEF811D811D089518
:100840000E94FC0308F48FEF08950F931F93CF933A
:10085000DF938230910510F482E090E0E0913A0657
:10086000F0913B0620E030E0A0E0B0E0309719F1D5
:10087000408151810281138148175907C8F08417BC
:10088000950769F4109731F012960C93129713960E
:100890001C9327C000933A0610933B0622C02115F3
:1008A000310519F04217530718F49A01BD01EF0101
:1008B000DF01F801DBCF21153105F9F0281B390BD9
:1008C0002430310580F48A819B816115710521F006
:1008D000FB019383828304C090933B0680933A0686
:1008E000FE01329644C0FE01E20FF31F8193919303
:1008F00022503109398328833AC02091380630913B
:100900003906232B41F420910201309103013093E9
:1009100039062093380620910001309101012115FC
:10092000310541F42DB73EB74091040150910501C6
:10093000241B350BE0913806F0913906E217F307D6
:10094000A0F42E1B3F0B2817390778F0AC014E5F3F
:100950005F4F2417350748F04E0F5F1F509339063D
:10096000409338068193919302C0E0E0F0E0CF011C
:10097000DF91CF911F910F910895CF93DF9300974F
:1009800009F481C0FC01329713821282A0913A06C9
:10099000B0913B06109781F420813181820F931F23
:1009A00020913806309139062817390751F5F09310
:1009B0003906E093380667C0ED0120E030E0CE173D
:1009C000DF0740F44A815B819E0141155105F1F03A
:1009D000EA01F5CFD383C28340815181840F951FF3
:1009E000C817D90759F488819981840F951F0296F9
:1009F000918380838A819B81938382832115310532
:100A000029F4F0933B06E0933A063DC0E901FB83ED
:100A1000EA8349915991C40FD51FEC17FD0761F482
:100A200080819181840F951F0296E90199838883C3
:100A3000828193819B838A83E0E0F0E012968D911E
:100A40009C911397009719F0FD01DC01F7CF8D9170
:100A50009C9111979D012E5F3F4F820F931F209114
:100A60003806309139062817390769F4309729F488
:100A700010923B0610923A0602C013821282B09383
:100A80003906A0933806DF91CF910895A0E0B0E039
:100A9000ECE4F5E00C943408AE014B5F5F4FFA01D3
:100AA00061917191AF0180913E0690913F060E9445
:100AB0009305E2E00C94500860913E0670913F0669
:100AC0000E948A0708950F931F93CF93DF93E091BD
:100AD0003E06F0913F06238121FF1BC08C01D0E030
:100AE000C0E0F80181918F0160913E0670913F0650
:100AF000DB011896ED91FC911997882331F0099547
:100B0000892B79F3DFEFCFEFECCF8AE00995892BC2
:100B100019F08FEF9FEF02C08D2F9C2FDF91CF91A7
:100B20001F910F910895ABE0B0E0E9E9F5E00C9476
:100B300024086C017B018A01FC01178216828381E3
:100B400081FFCCC1CE0101963C01F6019381F701F2
:100B500093FD859193FF81917F01882309F4BAC1A8
:100B6000853239F493FD859193FF81917F01853220
:100B700029F4B60190E00E948A07E7CF912C212C3E
:100B8000312CFFE1F315D8F08B3279F038F4803254
:100B900079F08332A1F4232D20611DC08D3261F0E4
:100BA000803369F4232D216016C0832D8260382E96
:100BB000E32DE4603E2E2AC0F32DF8601DC037FC03
:100BC0002DC020ED280F2A3040F08E32B9F436FCCB
:100BD00081C1232D2064322E19C036FE06C08AE062
:100BE000989E200D1124922E11C0EAE02E9E200D19
:100BF0001124222EF32DF0623F2E08C08C3621F4F2
:100C0000832D8068382E02C0883641F4F70193FDA9
:100C1000859193FF81917F018111B3CF982F9F7DA3
:100C20009554933028F40C5F1F4F9FE399830DC0B8
:100C3000833631F0833771F0833509F059C021C014
:100C4000F801808189830E5F1F4F88248394912C43
:100C5000530113C02801F2E04F0E511CF801A0808F
:100C6000B18036FE03C0692D70E002C06FEF7FEFE8
:100C7000C5010E947F074C018201F32DFF773F2EB3
:100C800016C0280122E0420E511CF801A080B1805C
:100C900036FE03C0692D70E002C06FEF7FEFC50123
:100CA0000E9474074C01F32DF0683F2E820133FC43
:100CB0001BC0822D90E088169906B0F4B60180E240
:100CC00090E00E948A072A94F4CFF50137FC8591C1
:100CD00037FE81915F01B60190E00E948A072110E2
:100CE0002A9421E0821A91088114910471F7E8C0D6
:100CF000843611F0893641F5F80137FE07C060816E
:100D00007181828193810C5F1F4F08C06081718166
:100D1000072E000C880B990B0E5F1F4FF32DFF76EB
:100D20003F2E97FF09C090958095709561957F4FF4
:100D30008F4F9F4FF0683F2E2AE030E0A3010E94C2
:100D4000C607882E861845C0853731F4232D2F7E9F
:100D5000B22E2AE030E025C0932D997FB92E8F3630
:100D6000C1F018F4883579F0B5C0803719F08837AC
:100D700021F0B0C0E92FE061BE2EB4FE0DC0FB2D06
:100D8000F460BF2E09C034FE0AC0292F2660B22E9F
:100D900006C028E030E005C020E130E002C020E1DC
:100DA00032E0F801B7FE07C06081718182819381D2
:100DB0000C5F1F4F06C06081718180E090E00E5F84
:100DC0001F4FA3010E94C607882E8618FB2DFF77B0
:100DD0003F2E36FE0DC0232D2E7FA22E891458F4EF
:100DE00034FE0BC032FC09C0832D8E7EA82E05C0B8
:100DF000B82CA32C03C0B82C01C0B92CA4FE0FC082
:100E0000FE01E80DF11D8081803321F49A2D997E39
:100E1000A92E09C0A2FE06C0B394B39404C08A2DC3
:100E2000867809F0B394A3FC11C0A0FE06C0B214EA
:100E300088F4280C922C9B180EC0B21460F4B601F2
:100E400080E290E00E948A07B394F7CFB21418F4BE
:100E50002B1802C0982C212CA4FE10C0B60180E3F0
:100E600090E00E948A07A2FE17C0A1FC03C088E799
:100E700090E002C088E590E0B6010CC08A2D86782B
:100E800059F0A1FE02C08BE201C080E2A7FC8DE216
:100E9000B60190E00E948A07891438F4B60180E315
:100EA00090E00E948A079A94F7CF8A94F301E80DA4
:100EB000F11D8081B60190E00E948A078110F5CF74
:100EC000222009F442CEB60180E290E00E948A0717
:100ED0002A94F6CFF6018681978102C08FEF9FEFAB
:100EE0002B96E2E10C944008FC01059061507040A3
:100EF0000110D8F7809590958E0F9F1F0895FC01E3
:100F00006150704001900110D8F7809590958E0F38
:100F10009F1F08950F931F93CF93DF93FB012381AE
:100F200021FD03C08FEF9FEF2CC022FF16C046812A
:100F30005781248135814217530744F4A081B18140
:100F40009D012F5F3F4F318320838C932681378112
:100F50002F5F3F4F3783268314C08B01EC01FB01C9
:100F60000084F185E02D0995892BE1F6D8011696CC
:100F70008D919C911797019617969C938E93169737
:100F8000CE01DF91CF911F910F910895FA01AA2709
:100F9000283051F1203181F1E8946F936E7F6E5FBC
:100FA0007F4F8F4F9F4FAF4FB1E03ED0B4E03CD06A
:100FB000670F781F891F9A1FA11D680F791F8A1F4D
:100FC000911DA11D6A0F711D811D911DA11D20D0B4
:100FD00009F468943F912AE0269F11243019305D6E
:100FE0003193DEF6CF010895462F4770405D41935F
:100FF000B3E00FD0C9F7F6CF462F4F70405D4A33AC
:1010000018F0495D31FD4052419302D0A9F7EACF73
:10101000B4E0A6959795879577956795BA95C9F7A2
:1010200000976105710508959B01AC010A2E069495
:101030005795479537952795BA95C9F7620F731F4E
:10104000841F951FA01D08952F923F924F925F928B
:101050006F927F928F929F92AF92BF92CF92DF92C8
:10106000EF92FF920F931F93CF93DF93CDB7DEB72D
:10107000CA1BDB0B0FB6F894DEBF0FBECDBF0994C1
:101080002A88398848885F846E847D848C849B8418
:10109000AA84B984C884DF80EE80FD800C811B8126
:1010A000AA81B981CE0FD11D0FB6F894DEBF0FBE55
:0A10B000CDBFED010895F894FFCFC5
:1010BA00000042062000627974654D61703A00258D
:1010CA00642000253033642D3E253033645B25646B
:1010DA005D40253034780A004E6F206D6F726520AE
:1010EA006D656D6F72792E2E2E2063616C6C696E40
:1010FA00672044656672616700427974654D617064
:10110A003A006D61696E3A46726565426C6F636B4F
:10111A00735B25755D0A2D2D2D0A006D61696E3A86
:10112A002A2A2053746172742066726565696E6733
:10113A00207365676D656E747320616E64206465E3
:10114A00667261676D656E746174696F6E000A6DAF
:10115A0061696E3A2A2A2046726565207365676D51
:10116A00656E74202325640A006D61696E3A204217
:10117A0065666F726520646566726167202D204618
:10118A00726565426C6F636B735B25755D0A006DF2
:10119A0061696E3A204166746572202064656672E0
:1011AA006167202D2046726565426C6F636B735BC5
:1011BA0025755D0A000A6D61696E3A204578697481
:1011CA00202D2046726565426C6F636B735B2575D3
:0411DA005D0A0000AA
:00000001FF
